:1000000000060020D1040000F9040000F9040000FB
:1000100000000000000000000000000000000000E0
:10002000000000000000000000000000F9040000D3
:100030000000000000000000F9040000F9040000C6
:10004000F9040000F9040000F9040000F9040000BC
:10005000F9040000F9040000F9040000F9040000AC
:1000600063370000F90400006D370000F904000058
:10007000F9040000F9040000F9040000F90400008C
:10008000F9040000F9040000F9040000F90400007C
:10009000451500005D150000F9040000F90400009A
:1000A000F9040000F9040000F9040000F90400005C
:1000B000F9040000F9040000F9040000F90400004C
:10040000FFFFFFFFFFFFFFFFFFFFFFFFFE3DFFFFBF
:1004100010B5064C2378002B07D1054B002B02D0DA
:10042000044800E000BF0123237010BDB4FFFF1F8C
:1004300000000000D8730000044B10B5002B03D05F
:100440000349044800E000BF10BDC04600000000A2
:10045000B8FFFF1FD8730000164B002B00D1144BC0
:100460009D46402292029A1A924600218B460F46E0
:100470001348144A121A05F04EFB0F4B002B00D004
:1004800098470E4B002B00D0984700200021040015
:100490000D000D48002802D00C4800E000BF05F018
:1004A0000DFB2000290001F031FD05F0F1FAC046F6
:1004B000000008000006002000000000000000000E
:1004C000B4FFFF1F400200200000000000000000F9
:1004D00072B606480649074A02600A6003F04CF902
:1004E00003F08CF962B6FFF7B7FF000080E100E08F
:1004F00080E200E0FFFFFFFF00480047F904000032
:100500000023C25C0133002AFBD1581E7047000053
:1005100002B4714649084900095C49008E4402BC96
:100520007047C04603B47146490840004900095E5F
:1005300049008E4403BC7047002243088B4274D3A9
:1005400003098B425FD3030A8B4244D3030B8B42D4
:1005500028D3030C8B420DD3FF22090212BA030CDD
:100560008B4202D31212090265D0030B8B4219D3BE
:1005700000E0090AC30B8B4201D3CB03C01A5241DE
:10058000830B8B4201D38B03C01A5241430B8B4226
:1005900001D34B03C01A5241030B8B4201D30B030F
:1005A000C01A5241C30A8B4201D3CB02C01A524136
:1005B000830A8B4201D38B02C01A5241430A8B42F9
:1005C00001D34B02C01A5241030A8B4201D30B02E2
:1005D000C01A5241CDD2C3098B4201D3CB01C01AFC
:1005E000524183098B4201D38B01C01A5241430906
:1005F0008B4201D34B01C01A524103098B4201D3F4
:100600000B01C01A5241C3088B4201D3CB00C01A60
:10061000524183088B4201D38B00C01A52414308D8
:100620008B4201D34B00C01A5241411A00D20146FD
:10063000524110467047FFE701B5002000F0F0F886
:1006400002BDC0460029F7D076E7704703460B434A
:100650007FD4002243088B4274D303098B425FD3BB
:10066000030A8B4244D3030B8B4228D3030C8B42E7
:100670000DD3FF22090212BA030C8B4202D31212CD
:10068000090265D0030B8B4219D300E0090AC30BA2
:100690008B4201D3CB03C01A5241830B8B4201D34F
:1006A0008B03C01A5241430B8B4201D34B03C01A38
:1006B0005241030B8B4201D30B03C01A5241C30AB0
:1006C0008B4201D3CB02C01A5241830A8B4201D321
:1006D0008B02C01A5241430A8B4201D34B02C01A0B
:1006E0005241030A8B4201D30B02C01A5241CDD2B0
:1006F000C3098B4201D3CB01C01A524183098B42FB
:1007000001D38B01C01A524143098B4201D34B01E3
:10071000C01A524103098B4201D30B01C01A524146
:10072000C3088B4201D3CB00C01A524183088B42CD
:1007300001D38B00C01A524143088B4201D34B00B6
:10074000C01A5241411A00D2014652411046704728
:100750005DE0CA0F00D04942031000D3404253402D
:1007600000229C4603098B422DD3030A8B4212D3ED
:10077000FC22890112BA030A8B420CD3890192111F
:100780008B4208D3890192118B4204D389013AD05C
:10079000921100E08909C3098B4201D3CB01C01A31
:1007A000524183098B4201D38B01C01A5241430944
:1007B0008B4201D34B01C01A524103098B4201D332
:1007C0000B01C01A5241C3088B4201D3CB00C01A9F
:1007D000524183088B4201D38B00C01A5241D9D2B7
:1007E00043088B4201D34B00C01A5241411A00D238
:1007F0000146634652415B10104601D34042002B34
:1008000000D54942704763465B1000D3404201B5B2
:10081000002000F005F802BD0029F8D016E7704767
:100820007047C0468446081C6146FFE71FB500F0CC
:10083000BFF8002801D40021C8421FBD10B500F048
:1008400043F84042013010BD10B500F0B1F8002867
:1008500001DB002010BD012010BDC04610B500F026
:10086000A7F8002801DD002010BD012010BDC04602
:1008700010B500F051F8002801DC002010BD012067
:1008800010BDC04610B500F047F8002801DA00207E
:1008900010BD012010BDC0469E2110B5C905041C25
:1008A000FFF7F0FF002803D1201C00F093FA10BDE1
:1008B0009E21201CC90500F0C5F800F08BFA8023AA
:1008C0001B069C466044F2E770B542004E024C00A5
:1008D00045026D0A120EC30F760A240EC90FFF2AB5
:1008E0000FD0FF2C11D00120A24200D070BDB54224
:1008F000FCD18B420DD0002AF8D12800451EA8411A
:10090000F4E70120002DF1D1EBE70120002EEDD11D
:10091000E9E70020EAE7C046F0B5420046024D0292
:100920004C00C30F760A120E6D0A240EC80FFF2A60
:100930001FD0FF2C10D0002A1FD171427141002C12
:1009400001D1002D1ED000290ED183421ED00221DC
:10095000581E08400138F0BD002D26D1002AF4D1E0
:10096000714271410029F0D00028F4D101204042A9
:10097000F1E7002E19D1FF2CEED0002CE5D1002D8F
:10098000E3D1E4E70020002EE5D0E0E7A24205DC59
:10099000EADBAE4202D8E7D30020DCE74142414126
:1009A0004842022108400138D5E702204042D2E700
:1009B000F0B5420046024D024C00C30F760A120EFB
:1009C0006D0A240EC80FFF2A0DD0FF2C0FD0002A6D
:1009D00023D171427141002C0FD1002D0DD1002087
:1009E000002E14D00DE0002E10D1FF2C15D1002DBB
:1009F0000CD1002A03D171427141002908D18342F0
:100A000010D00221581E0840013800E00220F0BD3D
:100A10000028FCD101204042F9E7002CEFD1002D45
:100A2000EDD1EEE7A24205DCF2DBAE4202D8EFD315
:100A30000020ECE741424141484202210840013890
:100A4000E5E7C046F0B54646D6464F4643025B0A48
:100A5000DA0094464A02C0B54400560A051CB04666
:100A6000240E4E0092091F0020009246ED0F360E14
:100A7000C90FFF2E00D17FE0012251408D4251D09D
:100A8000A21B9146002A00DC7EE0002E00D199E0F6
:100A9000FF2C00D18CE080235246DB041A4392469F
:100AA0004A4601231B2A08DC53462021D340891AD9
:100AB00052468A40511E8A4113436246D31A5A0154
:100AC00000D4F3E09B019E09300000F00DFD0538D5
:100AD0008640844200DDF7E03200041B2020013410
:100AE000E240041BA64033005E1EB34100241343C2
:100AF0005A0704D00F221A40042A00D004335A01A6
:100B000000D4D6E0621CFE2C00D1DAE09B015F0A23
:100B1000D0B2C0053843ED0728431CBC9046994627
:100B2000A246F0BDA21B9146002A63DD002E00D133
:100B300099E0FF2C3CD080235246DB041A439246B6
:100B40004A4601231B2A08DC53462021D340891A38
:100B500052468A40511E8A41134363445A0100D4CD
:100B6000A4E00134FF2C00D1ABE0012297491A40E8
:100B70005B080B401343BBE7002A32D08D4235D0CF
:100B8000FF2252429146A1444A46002A51D0301BCE
:100B9000002C00D09CE06346002B00D1DFE0013840
:100BA000002800D1F7E0FF2E00D099E00D00434669
:100BB000002B00D185E08027FF031F437F02FF2029
:100BC0007F0AA6E75246002A74D00122524290467C
:100BD000C1444A46002A00D1C8E0FF2C00D05FE79C
:100BE000E6E701225140A94200D049E7FF225242E4
:100BF0009146A1444A46002A43D0311B002C00D123
:100C00008CE0FF2E00D192E080236246DB041A4381
:100C1000944601231B2909DC202063466246CB4011
:100C2000411A8A401100481E81410B43340053444D
:100C300094E7FE22661C324264D1002C00D082E090
:100C40006346002B00D1ABE05346002B00D160E798
:100C5000634652469B1A5A0100D4AAE063465246A4
:100C60000D00D31A44E75246002A23D001225242F3
:100C70009046C1444A46002A75D0FF2C00D05FE759
:100C800096E7FE260134264253D1002872D16346EE
:100C9000002B00D193E05346002B00D139E7634489
:100CA00000245A0102D54A4A013413405A0700D0A1
:100CB00020E7DB08FF2C00D17AE75B025F0AE0B295
:100CC00027E7FF20002724E7414B241A33400FE792
:100CD000FF2E00D16AE780236246DB041A43944664
:100CE00001231B2809DC202463466246C340201AE6
:100CF00082401000441EA041034352460D003400C0
:100D0000D31ADCE6634652469E1A730117D4002EAE
:100D100000D0D9E6002500200027FAE66346002B24
:100D200044D0013900294CD0FF2E00D071E7434652
:100D30003EE7FF2CC5D0524662445308B6E76346EF
:100D40000D00D61AC0E66246002A16D15346002B83
:100D500000D02BE780270025FF20FF03D9E60D00F8
:100D600043463400A6E753466344F7E663465246DB
:100D70009B1AA4E66246002AD9D05246002A00D126
:100D800016E78022D203134200D111E740461042F9
:100D900000D00DE70AE752460D003400D31A8EE664
:100DA0005346002B08D00D004746B2E643463400B8
:100DB00080E7002B00D079E700250027A9E6474609
:100DC000A7E6534634006344C8E6C046FFFFFF7DF4
:100DD000FFFFFFFB41024200C30F490A0020120E31
:100DE0007E2A03D99D2A02D9094A98187047802083
:100DF00000040143952A07DC9620821AD14048421C
:100E0000002BF3D10800F1E7963A9140F7E7C0468E
:100E1000FFFFFF7F70B5002813D0C317C5185D40D2
:100E2000C40F280000F060FB9E2301001B1A962BC4
:100E30000FDC082801DD08398D406D026D0AD8B23B
:100E400002E0002400200025C0052843E4072043D9
:100E500070BD992B0BDD05222E00121AD640020020
:100E60001B3295402800451EA84135000543052941
:100E700001DD4A1F95402A00084E3240680709D01C
:100E80000F202840042805D00432500102D59F23AA
:100E900032405B1A9201550AD8B2D5E7FFFFFFFB3B
:100EA000F0B557464E464546DE46E0B598460C033B
:100EB0004B000600924687B0240B5B0DCF0F002B32
:100EC0006CD0DD4A934200D186E0420FE400144327
:100ED000802212041443D94AC50094466344009307
:100EE000002399469B46434642461E03D20F5B00B1
:100EF00050469046360B5B0D00D178E0CE4A9342C7
:100F00001DD0CE49420F8C4600996344F6008C46B2
:100F1000164380229C44120463461643C2000020FC
:100F200000930099434601318C4649467B4001932A
:100F30000F2900D97EE0C24B890059588F4652468E
:100F4000009B324300D056E1BB4900268C466344E7
:100F5000494600930223194389460220E1E74346AC
:100F600001933400150083465B46022B5ED0032BB1
:100F700000D1F3E1012B00D018E10022002400256C
:100F8000019B12052243DB071A432800110007B01A
:100F90003CBC90469946A246AB46F0BD25000543B1
:100FA00000D141E1002C00D1ADE1200000F09CFA1D
:100FB000010002000B391D2310005B1A31003500BF
:100FC00008388440D94085400C439E48831A0093DA
:100FD000002399469B4686E70500254300D01CE187
:100FE000082200930223002491469B467BE7524649
:100FF000324300D10AE1002E00D176E1300000F04A
:1010000073FA02000B3A1D2301009B1A524608395D
:10101000DA408E40164352468A40009B8949181A8E
:1010200003008C466344002000937AE700240025E7
:10103000814AA5E72F0C2D042D0C2B00110C120456
:10104000120C53439846130028007B4399464843AB
:101050004844834640460B00000C824658467B437A
:1010600050440293814506D99A4680235B029946F3
:10107000CA4453460293030C9B4643461B04000498
:101080001B0C9846030043440493330C99462B00F1
:101090003604360C7343984633007B439A464B46DE
:1010A0005D435F4343465544180C4019824503D9BC
:1010B00080235B029A465744050CEB19059343467F
:1010C0001D042D0C00044019250C2404240C2700B9
:1010D00057436A4390462A003B0C9A464A43614371
:1010E000414451448344884503D980235B02984698
:1010F00042443F040B0C3F0C0904C91927009846D1
:101100004B4677435C436E435D433B0C9946A419C1
:101110004C4442440395A64204D980235B0298467E
:1011200045440395029B3F045B441E00834280417B
:1011300023049846059B3F0C4744984676188E42F8
:101140008941474440423D18A846934649428A4651
:10115000C3449F42BF4180458041039BDA44984687
:10116000534640427F420743240C934592418A45AF
:1011700089413F19DC0D049B75021D43681E8541A2
:101180005346524249420A43BF184744F60D7F0274
:1011900035435A023C431543FB0100D4C1E0012111
:1011A0006A080D401543E207154364082649614467
:1011B000002956DD6B0709D00F222A40042A05D0EA
:1011C0002A1DAA42AD416D4264191500E30104D500
:1011D00080211E4AC900144061441D4A914200DD2D
:1011E00024E76207ED08640249051543240B4A0D04
:1011F000C6E60197B8E6104A0320944663444A467F
:10120000009303231A43914652468AE64946012336
:10121000194389460026012083E60C22009303230C
:10122000050091469B465EE6042399460023009301
:10123000013300249B4656E6FF07000001FCFFFF38
:101240003C5B00000DFCFFFFFF030000FFFFFFFE03
:10125000FE070000002380240025444A0193240354
:101260008EE60120401A382800DD86E61F285BDD67
:101270001F2223005242511ACB401900202803D0CC
:101280003B4A6244944025436A1E95412A000A4322
:1012900007210D000024154011425BD00F210024CE
:1012A0001140042953D0111D914292415242A41879
:1012B0000A0023024BD501220024002560E680238A
:1012C0001B031C4209D01E4207D133431C03434673
:1012D0001500240B254A019352E680221203144381
:1012E0002403224A240B01974AE600F0FDF803008C
:1012F0001A00153220301C2A00DC84E65646083BD2
:1013000000229E4089E600F0EFF80100020015314E
:1013100020321C2900DC4EE63400083800258440C9
:1013200053E6009B9C4641E71249220061442E008F
:101330008D408A40C640691E8D4132432A43C440D5
:101340005307B6D00F2111400429ACD1B1E765078E
:101350006402240BD2081543002211E680221203F6
:1013600014432403014A240B0AE6C046FF07000089
:101370003E0400001E04000070B5002816D0C317FC
:10138000C5185D40C40F280000F0AEF8114A121ACB
:101390000A2816DC03002E0015339E400B23181A72
:1013A000C54053052D032D0B5B0D03E000240023E6
:1013B000002500261B052B43E407234330001900BA
:1013C00070BD0B38854053052D0300262D0B5B0D9A
:1013D000F0E7C0461E04000002004B00F0B5080311
:1013E0005B0D3D4ECC0F400A510F5F1C0843D500EA
:1013F00037420AD039495E18FE2E16DDFF23002140
:10140000DB050B43E0071843F0BD002B06D1284352
:1014100027D005218901490ADBB2F1E70543EDD068
:101420008021C903FF230143EAE7002E1CDD92015E
:1014300011004A1E9141C0006D0F014329434B0723
:1014400048D00F230B40042B00D004318023DB0451
:101450000B403FD0721CFE2ED0D08901490AD3B276
:10146000CEE700230021CBE73200173222DB8021B8
:101470001E2209040843921B1F2A1DDD0221494236
:101480008E1B0100F1400E00202A04D0144A94461D
:1014900063449840054329004D1EA941314300266D
:1014A0004B07CED180200B00C00401220340014233
:1014B000D3D1AFE70023ACE70A498C462900634447
:1014C000D1409D400A00290098404D1EA94101438A
:1014D0001143E4E733009DE7FE07000080FCFFFFB7
:1014E000A2FCFFFF82FCFFFF1C2101231B0498428A
:1014F00001D3000C10391B0A984201D3000A0839A5
:101500001B09984201D30009043902A2105C40185B
:101510007047C046040302020101010100000000FF
:1015200000000000837802209842804140427047CA
:10153000437A0020013B012B03D90B7801300133A2
:101540000B70704710B5002003F052FD002803D047
:101550000021080003F040FD10BD0000024A13689E
:10156000013313607047C046F0FFFF1F37B50020FE
:1015700002F0FCFBC02300240D4A9B0013600D4ABF
:101580000D4D13600D4A200013600D4B2C716C71D2
:10159000AC711A68FA239B0053430A492B6003F08D
:1015A0009FFD2900200001AA03F000FE37BDC046C0
:1015B000189014541C9014544800002000A0145497
:1015C00020FEFF1F1800002010B58024002003F02B
:1015D000C9FD0A4B64001C60094B07201C60094BC5
:1015E0001C6002F075FE062002F072FE200002F080
:1015F0006FFE002002F0BFFB10BDC04618901454CF
:101600001C90145400A0145410B5002002F0B8FB34
:101610008023054A9B001360044A0020044913609C
:1016200002F042FF10BDC0460CA0145410A0145488
:10163000F4FFFF1F10B5002002F072FF802382200C
:10164000074A5B001360074A4000136002F040FE47
:101650000420FF3002F03CFE002002F096FB10BD9B
:101660000CA0145410A014540023364A70B5136013
:10167000354A01201360354A0133FF331360344A81
:1016800034491360344A1360344A1360344A136097
:10169000344A1360344A1360344A147825000540F4
:1016A00004424DD00B60324932480B60002101608A
:1016B0003148016031490B6031490B6031490B60A1
:1016C00031490B6031490B6031490B601378DB07FE
:1016D00003D50220FF3002F0EDFD092002F0F8FDF5
:1016E0000C2002F0F5FD052002F0F2FD082002F0CA
:1016F000EFFD0620FF3002F0EBFD0E20FF3002F080
:10170000E7FD8320400002F0E3FD0820FF3002F0F7
:10171000DFFD0C20FF3002F0CDFD8220400002F002
:10172000D7FD0420FF3002F0D3FD072002F0D0FDEA
:10173000062002F0CDFD8020400002F0C9FD70BD02
:101740000D60B0E70C90145410901454149014547D
:101750001890145404A014541C9014542090145441
:10176000249014543090145400A014541CFEFF1FF5
:1017700008A014540CA0145410A0145414A0145411
:1017800018A014541CA0145428A014542CA01454B1
:1017900034A0145410B5092002F09AFD10BD10B504
:1017A0000C2002F095FD10BD384B10B598423DD08D
:1017B00027D8374B984253D015D8C83B984244D0CD
:1017C00009D8C83B984231D0324B984206D1052007
:1017D00002F070FD2DE0304B98423DD02F490020A3
:1017E00001F0B3FF2CE096231B01984243D02C4B11
:1017F000984247D02B4B9842F0D1052002F05AFD79
:1018000031E0294B98422BD007D8C83B98421CD0D6
:10181000264B984220D0264BD7E7C8231B0198427D
:1018200029D0244B98422DD0234BE4E7052002F029
:101830004FFD082002F04CFD0620FF3002F048FD6D
:101840001E4B186802F099F810BD052002F040FD0B
:10185000082002F02FFDEFE7052002F02BFDF7E74F
:10186000052002F035FD082002F032FD0620FF3091
:1018700002F020FDE4E7052002F02AFD082002F036
:1018800019FDF3E7052002F015FDF7E7280A00002F
:10189000980800006C070000340800007C5B000022
:1018A000C4090000FC080000B80B0000540B000045
:1018B0008C0A0000E40C00001C0C000024FEFF1F3A
:1018C00010B5FFF771FF092002F0F4FC0C2002F0C4
:1018D000FFFC8320400002F0FBFC10BD10B5FFF7B9
:1018E00063FF092002F0F4FC0C2002F0E3FC8320EB
:1018F000400002F0DFFC10BDAF220C4B10B5C31846
:101900009BB29200934202D8FFF7DAFF10BD084B5A
:10191000C3189BB2934202D8FFF7E0FFF6E702003C
:101920000449002001F011FFF0E7C046F8F8FFFF7E
:10193000D8F5FFFFA95B000010B5FFF72BFFFFF7FD
:101940002EFF8320400002F0B5FC024B186802F025
:1019500014F810BD24FEFF1F10B50400002901D0AB
:10196000FFF782FE0021022001F0A6F821000420EA
:1019700001F0A2F810BD10B5012420000021FFF7EE
:10198000EBFF21003C20FFF7E7FFF6E7F0B59CB244
:1019900085B00292060022000D000020012101F016
:1019A0002CF90700200001F03BFA3B180393002EAE
:1019B0002AD02749002001F0B5FC264E306801F0FE
:1019C000DCFF2549002001F0ADFC306801F0D5FFB7
:1019D0002249002001F0A6FC306801F0CEFF20492A
:1019E000002001F09FFC306801F0C7FF1D49002076
:1019F00001F098FC306801F0C0FF00201A4901F0A6
:101A000091FC306801F0B9FF0027184E184933687F
:101A10007268002000923A0001F097FE280001F061
:101A200033F92100280001F011FA280001F08EFAA4
:101A3000039932680020736800910E4901F085FE19
:101A4000029B002B02DD180001F097FF0137DCE755
:101A5000E15B000018FEFF1F095C00002B5C00002A
:101A60003C5C00004A5C00002B6C000000D003408E
:101A70006F5C00007B5C000010B50C49002001F099
:101A800051FC0B4C206801F078FF0A49002001F05E
:101A900049FC206801F071FF01F058FA0649002066
:101AA00001F040FC206801F068FF10BD885C000078
:101AB00018FEFF1F2B6C0000B45C0000F0B591B065
:101AC0001E0016AB0C91197817AB05921A7818AB5B
:101AD0001B7804000D931CAB1B780EA80E931DAB56
:101AE0001B880F1C089321231B18DB7F09931FAB56
:101AF0001B880F9320AB1B780A93914200D9171CC7
:101B0000059BFFB2002E06D1002B06D158490020BC
:101B100001F01BFE01E0002BF8D100250898FFF72B
:101B2000EBFE2100002001F0FDFB089C04950695CA
:101B3000039500230793079B199A934200DC95E0D5
:101B40000E9B002B04D001370D9BFFB29F42F0D9B2
:101B5000039A069B944647496344002001F0F5FD33
:101B6000322001F00AFF099B049A434900930020A8
:101B7000039B01F0EAFD322001F0FFFE2A003F49FD
:101B8000002001F0E2FD322001F0F7FE11B0F0BDBF
:101B9000029B2C22FB180B936B469B181878012193
:101BA0000C9B9847002849D1039B01330393089B62
:101BB0009C4204D9643CA4B22000FFF79DFE002E95
:101BC00026D0099A737B9B1A5A425341049AD31820
:101BD00004930A9B002B0BD0F37A029A317B707B23
:101BE0000091019026490020DBB2BA1801F0ADFD4A
:101BF0001B9B002B02DD180001F0BFFE029B01338E
:101C00000293029B1A9A9342C2DB079B013391E72E
:101C1000059B099A1B7A9B1A5A425341049AD3187E
:101C200004930A9B002BE3D0059B029A1B7A300099
:101C30001449DBB2BA1801F088FDD9E7022810D1A7
:101C400000200B9A104901F080FD069B013306939A
:101C50000F9B9C42CCD26434A4B22000FFF74CFE10
:101C6000C6E70338434258412D18C1E70023C7E7B0
:101C70007C5B0000135D00002B5D00005C5D0000DC
:101C8000C65C0000EB5C0000005D0000F0B591B0A8
:101C90000D9316AB0400100004CB0C911F781AAB07
:101CA0001B880E920F931BAB1E881CAB1D78002C5B
:101CB00052D0FFF7A9FC601E112847D8FEF728FC78
:101CC00009252A2C2E4630323436383A3C403E46DE
:101CD00042440F9B0C9A07930D9B00920693189B0E
:101CE000204A05930E9B20490493199B1F48039398
:101CF0003123029300230A97099608950193FFF771
:101D0000DDFEFFF797FC11B0F0BD1949002001F08E
:101D100009FBF6E71749F9E71749F7E71749F5E728
:101D20001749F3E71749F1E71749EFE71749EDE7D7
:101D30001749EBE71749E9E71749E7E71749E5E7E7
:101D40001749E3E71749E1E71749DFE72200174999
:101D5000002001F0FAFCD4E72000154901F0E2FA76
:101D6000D1E7C046E0FFFF1F192C0000715D0000A5
:101D70007F5D0000AA5D0000DB5D00000B5E0000DF
:101D80003B5E0000685E0000955E0000C15E0000E2
:101D9000EF5E00001B5F0000485F0000745F000002
:101DA000A05F0000CD5F0000F95F0000256000002B
:101DB0007760000003003038092805D91A00613A1D
:101DC000052A02D8573B180070471A00413A0020F4
:101DD000052AF9D8373BF6E770B501F0BEFA0400E2
:101DE00001F0BBFAFF26050020003040FFF7E2FFBC
:101DF000040028003040FFF7DDFF24012018C0B2A6
:101E000070BD70B501F0A9FA060001F0A6FA050050
:101E100001F0A3FA040001F0A0FAFF22FA236421E2
:101E200016401540303E14409B00303D4D437343F7
:101E30005A39303C4C435B1910401B193038181884
:101E400070BD000070B50C00160088B00CAA1578A3
:101E500006A908800A4A05A805700A4D12682D686F
:101E60004A6004AA16700193009023000020029596
:101E700002F07EFC002800D0022008B070BDC046F1
:101E800010FEFF1F14FEFF1FF7B56A46CB1DDB08CF
:101E9000DB00D31A02AF9D460C000500FFF766FB7E
:101EA000FA2300219B0002AE0193009433002A0024
:101EB000080003F0D7F90400FFF786FB002C00D0E0
:101EC0000424BD462000F2BD10B50020014901F0F8
:101ED00029FA10BDA360000010B5094C00202100B4
:101EE00001F020FA2100002001F01CFA0549002031
:101EF00001F018FA0449002001F014FA10BDC046A0
:101F0000CF600000FF60000030610000F0B5B9B0A4
:101F100025AC07220021200003F0FDFDF94A01272E
:101F20002C92032215AB2F9317AB309319AB32933E
:101F30001DAB34931FAB359321AB369323AB1BAE54
:101F400011A9002037932CAB1A712E91149327708E
:101F50003396319401F002FF380001F0FFFE80213A
:101F6000E94B0902196001F027FD002300971A00D0
:101F70001900180001F0F8F9E449002001F0D2F945
:101F8000C82001F0FAFCE249002001F0CBF9C8209A
:101F900001F0F3FCDF49002001F0C4F9C82001F092
:101FA000ECFC3B00DC4A0221DC4801F029FD390051
:101FB000380001F031FD002002F058FF8C2100258F
:101FC000D74B2800299308AB5B181D80023108AB62
:101FD0005B1829A91D702A9702F074FF3A002900A6
:101FE00011A803F098FD4820259B08A91993A28801
:101FF00009180A80A279023008A909180A70032278
:10200000063808A909180A701B93A28808A9B2808B
:10201000A2790A38B271052232701593A28802267D
:102020000A87A27909180A70342108AA5218167072
:102030001793A288063008A909180A80A279801986
:1020400008A909180A700422063808A909180A7094
:102050001D93A2881C3008A909180A80A27980194A
:1020600008A909180A700822063808A909180A7070
:102070001F93A2880C3008A909180A80A279801938
:1020800008A909180A700921063808AA121811703F
:102090002193A3880C3008AA12181380A379801901
:1020A00008AA121813700A23063808AA1218137007
:1020B0006C2208AB9B181D7014AA3B002FA801F0DE
:1020C000B5FE2900300000F0F7FC9649964802F072
:1020D000C7F8FFF7C9FA0820FF3002F0EBF8C82074
:1020E00001F04BFC0820FF3002F0F2F8C82001F0AC
:1020F00044FC0820FF3002F0DDF8C82001F03DFC70
:102100000820FF3002F0E4F8C82001F036FC082077
:10211000FF3002F0CFF8C82001F02FFC0820FF307C
:1021200002F0D6F81C20814900F062FD4020804971
:1021300000F01CFEFFF700FC00F0AEFE80231B0247
:1021400009932B002F0008950B9503330A937949C7
:10215000002001F0E7F8784C206801F00EFC774988
:10216000002001F0DFF8206801F007FC3B00089A2E
:102170007349002001F0E9FA206801F0FEFB714D7F
:10218000714E72492A680998336809680190009174
:1021900000206F4901F0D9FA206801F0EEFB6D4B89
:1021A0006D496E4A0020D2584B69096800916C490C
:1021B00001F0CBFA206801F0E0FB6A4900200A78C0
:1021C0004B788979D2B2DBB20091674901F0BDFA50
:1021D000206801F0D2FB634B64491A7A1B7E0978B0
:1021E000D2B2DBB200910020614901F0AEFA206862
:1021F00001F0C3FB5F4B60491A785B780969D2B282
:10220000DBB2009100205D4901F09FFA206801F0E7
:10221000B4FB5B4B51489A784F495A4BD2B2C358E2
:10222000496800200091584901F08FFA206801F0B8
:10223000A4FB564B56491A6811AB1B78002001F0DD
:1022400084FA206801F099FB5249002001F06AF8F5
:10225000206801F092FB5049002001F063F82068EB
:1022600001F08BFB4D49002001F05CF8206801F083
:1022700084FB4B49002001F055F8206801F07DFBFC
:102280004849002001F04EF8206801F076FB4649ED
:10229000002001F047F8206801F06FFB434900205F
:1022A00001F040F8206801F068FB4149002001F08E
:1022B00039F8206801F061FB3E49002001F032F856
:1022C000206801F05AFB3C49002001F02BF82068FF
:1022D00001F053FB3A000A9B3849002001F035FA1F
:1022E000206801F04AFB3649002001F01BF8206805
:1022F00001F043FB3349002001F014F8206801F09D
:102300003CFB61E0311500003002002062610000FA
:102310007D6100008361000000FEFF1F3CFFFF1F86
:10232000E00701004CFEFF1F3CFEFF1FE0FFFF1F08
:10233000D0FFFF1F8A61000018FEFF1FAE61000082
:10234000E061000010FEFF1F20FEFF1F28FEFF1FA0
:10235000146200003C10000000D0034000700440F4
:102360004C620000004006408262000000500640BF
:10237000B162000000E0074000ED00E0E162000013
:1023800000D00740341000001B630000F0FFFF1F67
:1023900053630000816300008B630000A8630000AA
:1023A000C4630000E0630000FD63000024640000DB
:1023B00043640000626400008D640000B0640000AB
:1023C000DF640000FB640000D449002000F0AAFF95
:1023D000206801F0D2FAD249002000F0A3FF206863
:1023E00001F0CBFACF49002000F09CFF206801F0FB
:1023F000C4FACD49002000F095FF206801F0BDFA35
:10240000CA49002000F08EFF206801F0B6FAC849E2
:10241000002000F087FF206801F0AFFAC5490020D6
:1024200000F080FF206801F0A8FAC349002000F006
:1024300079FF206801F0A1FAC049002000F072FF86
:10244000206801F09AFABE49002000F06BFF206876
:1024500001F093FABB49002000F064FF206801F00E
:102460008CFAB949002000F05DFF206801F085FA80
:1024700000F073FFFF2302000C901A400A2A00D1DB
:10248000C2E210006138192800D9B0E0FEF74AF81E
:102490002200B100C400D400DF00E90027013201AE
:1024A0003A01BA0111021702170258025D026102D5
:1024B000AF0067026A025FFE7202AF00B4028002E0
:1024C000AF008D02A14B0B9301233FE6A04B0B9372
:1024D00014233BE69F49002000F024FF9E49002082
:1024E00000F020FF206801F048FA9C49002000F02D
:1024F00019FF9B49002000F015FF9A49002000F0C9
:1025000011FF206801F039FA9749002000F00AFF16
:10251000206801F032FA9549002000F003FF20689E
:1025200001F02BFA9249002000F0FCFE206801F037
:1025300024FA9049002000F0F5FE206801F01DFA11
:102540008D49002000F0EEFE206801F016FA8B495C
:10255000002000F0E7FE206801F00FFA8849002013
:1025600000F0E0FE206801F008FA8649002000F043
:10257000D9FE206801F001FA8349002000F0D2FE64
:10258000206801F0FAF98149002000F0CBFE2068B4
:1025900001F0F3F97E49002000F0C4FE206801F04C
:1025A000ECF97C49002000F0BDFE206801F0E5F95F
:1025B0007949002000F0B6FE206801F0DEF9774985
:1025C000002000F0AFFE206801F0D7F97449002028
:1025D00000F0A8FE206801F0D0F900F0BEFEFF2256
:1025E0000240352A00D16DE76C2A00D16EE76D49B3
:1025F0000EE06D49002000F095FEFFF702FC286018
:102600002A686A4B9A4201D1694B2B602A68694952
:10261000002001F09AF89AE56749002000F082FE58
:10262000FFF7EFFB30603268604B9A4201D1604B9C
:10263000336032686149EBE76149002000F072FEC7
:10264000FFF7DFFB5F4B604918601A68E0E75F49FE
:10265000002000F067FEFFF7BFFB5D4907000200A6
:10266000D6E75C49002000F05DFEFFF7B5FB5A4D50
:10267000020029000400002001F067F857490020FB
:1026800000F050FEFFF7A8FB12AE020029003070E8
:10269000002001F05AF85249992C00D180E1514BA9
:1026A00008981B6827AD28932C80FFF725F9099817
:1026B000FEF7AAFF4C4B13AA1B6817700293012365
:1026C000290000200193009602F052F8021E03D068
:1026D0000020464901F039F8FEF7ACFF37E54449E0
:1026E000002000F01FFEFFF78CFB83B21A00414967
:1026F00008938DE74049002000F014FE0120FFF709
:10270000EBFB24E53D49002000F00CFEFFF779FBD0
:1027100083B21A003A4909937AE7C0461F65000060
:10272000436500005D650000786500009665000067
:10273000B3650000D2650000F16500000B66000083
:1027400036660000566600007D660000E0FFFF1F51
:10275000D0FFFF1F906600009B660000D966000056
:102760001B6700005C6700009C670000CC670000EE
:10277000096800004868000086680000C36800001F
:10278000016900003E6900007D690000BA6900002F
:10279000E3690000206A0000576A0000946A0000A4
:1027A000D16A0000E56A0000016B00000F270000FD
:1027B000102700002F6B00004F6B00007D6B0000A6
:1027C000976B000028FEFF1FC66B0000E16B000046
:1027D000176C00002E6C0000616C0000776C00002C
:1027E000A06C000010FEFF1F14FEFF1FC66C00004F
:1027F000E76C0000136D0000356D0000636D000094
:102800009F6D00003A008149002000F09EFF00F01B
:10281000A4FD7F490C90002000F084FD00F09DFD98
:102820007C490D90002000F07DFD00F096FD7A4976
:102830000E90002000F076FDFFF7E3FA77490500DF
:10284000002000F06FFDFFF7DCFA7549060000205C
:1028500000F068FDFFF7D5FA72490400002000F08F
:1028600061FDFFF7B9FA099B0A9A0F9001936E492F
:102870003B0002950096002000F067FF0C9B0F9A2A
:10288000303B581E83410E980692089A30380492C5
:10289000421E904101900D98A4B23038009039004A
:1028A000099A0A98DBB2059403960295FFF7EEF9B0
:1028B0004DE45E49002000F035FDFFF75CF85C490F
:1028C000002000F02FFD5B49002000F02BFDFFF7FA
:1028D00083FA27AE58493070002000F023FDFFF73F
:1028E00090FA30226B469B181D7804003378089AC2
:1028F0006C2D15D10192099A5049009202000020D6
:1029000000F023FF0025A54200DB20E427AB1A7866
:1029100000230121FF200093FFF794FA0135F2E72D
:10292000009247490200002000F00FFF0025A54259
:1029300000DB0CE4012127A8FFF7A6FA0135F6E732
:102940000898FEF7D9FFFFF702FCFEF7F5FFFFF747
:10295000FEFB0021022000F0AFF8FFF7F8FB00219A
:102960000820F8E73249002000F0DCFCFFF7ACFA61
:10297000FFF7EDFB0B9B3349002B11D032490020B0
:1029800000F0D0FCFFF728FA0B9B1870FFF7DFFB75
:102990002E49002000F0C6FC2D4800F0EEFF2D4926
:1029A000002000F0BFFCFFF7D2FB2B49002000F015
:1029B000B9FC0998FEF728FE2849002000F0B2FC77
:1029C00000F0CBFC26490500002000F0ABFCFFF72F
:1029D00018FA86B232002349002000F0B6FE2068C3
:1029E00000F0CBFFE9B268394D4269413200012065
:1029F000099BC9B2FEF7CAFF1B49002000F0A5FEE3
:102A0000FFF73AF8FFF7A3FB1849C9E7BC6D0000D0
:102A1000F66D00001F6E0000386E0000776E00003B
:102A2000A36E0000DB6E00000C6F0000496F000019
:102A3000356D00006C6F00008B6F0000AB6F000005
:102A4000FD6F00003B70000079700000B170000065
:102A500010270000D0700000DA700000F370000052
:102A60001C710000647100009C710000D0710000B6
:102A70001FB5040001A9002002F04CFA694601A824
:102A800002F086F9009B68461C1901A9009402F027
:102A900007F9012201A9002002F068FA1FBD000019
:102AA0000022034B1A608022024B1206DA6770473D
:102AB00000A01C5804E100E070B50D000A240828AD
:102AC0001CD8FDF725FD051D2A3F54676C6F5C007F
:102AD00001F042FB0524012810D0FFF7E1FF280098
:102AE000FFF7C6FF0021080001F0C2F90121040030
:102AF000002000F091FF002C22D10024200070BDA6
:102B000001F02AFB06240128F8D0FFF7C9FF2800AE
:102B1000FFF7AEFF00210120E6E701F01DFB0824CE
:102B20000128EBD000F0F6FF002803D0012100209F
:102B300000F072FF0021022001F09AF90028DCD099
:102B40000924DBE701F008FB07240028D6D0FFF7B3
:102B5000A7FF2800FFF78CFF0021032001F088F970
:102B6000040001F0F9FA01210028C4D1C1E7FFF700
:102B700097FF2800FFF77CFF00210420EEE70021EB
:102B8000082001F075F9041EDAD10121080000F0D7
:102B900043FFB3E70021052001F06AF9D0E70021E7
:102BA0000620F9E700210720F6E700000B0000B53A
:102BB0000C4A89B0127806A90A800B4A12684A604A
:102BC00005AA107004A80370084B1B6800900293BC
:102BD00001230020019301F0CBFD002800D002204A
:102BE00009B000BDE0FFFF1F10FEFF1F14FEFF1F16
:102BF000C223FF3308704B60704770B50D000100B1
:102C00000920FFF7D3FF290004002A20FFF7CEFF99
:102C10002043C0B270BD000000B589B00300684613
:102C20000A00144909780175182B1BD8D91F0320F5
:102C300001291CD91049087806A908800F480068A6
:102C40004860684603750E4B00201B680192029392
:102C50000C4B05AA0093012301F097FD002806D034
:102C6000022004E019001D3903201429E2D909B01B
:102C700000BDC04602720000E0FFFF1F10FEFF1FF4
:102C800014FEFF1FE8FFFF1F70B5022104000120A2
:102C9000FFF7C2FF304D2A7A6B7AD2B2DBB200283E
:102CA00020D000202D4900F03DFB02210320FFF73A
:102CB000B3FF2A7A6B7AD2B2DBB2002825D000208B
:102CC000264900F02FFB02210520FFF7A5FF2A7AF5
:102CD0006B7AD2B2DBB200282AD000201F4900F064
:102CE00021FB70BD002C03D01D4900F02EFDDCE758
:102CF0009B0892011A4380239B015A40194B2000E4
:102D00001949D21800F021FDCFE7002C03D0144957
:102D100000F01BFDD7E79B0892011A4380239B011B
:102D20005A40104B20001049D21800F00EFDCAE79F
:102D3000002C03D00A4900F008FDD2E79B0892015D
:102D40001A4380239B015A40064B20000649D218A3
:102D500000F0FBFCC5E7C046E0FFFF1F0472000067
:102D60000B72000000E0FFFF765C00008023DB05B3
:102D700008704B607047000010B588B002006846CC
:102D80000B001149097801740320052A19D80F494D
:102D90000224087806A908800D485BBA00684860DC
:102DA0006846027405AA13800A4B00201B68009233
:102DB00002930194012304AA01F0DAFC002800D058
:102DC000200008B010BDC04602720000D0FFFF1FF7
:102DD00010FEFF1F14FEFF1F0B0000B50C4A89B048
:102DE000127806A90A800B4A12684A6005AA107078
:102DF000094800680193094B0290009300200123C9
:102E000001F0C3FC002800D0022009B000BDC0467C
:102E1000D0FFFF1F10FEFF1F14FEFF1FD8FFFF1F74
:102E2000094B70B519680500020089B20520FFF74B
:102E3000A3FFA02104002A00FF310020FFF79CFF20
:102E40002043C0B270BDC0462CFEFF1F10B502214A
:102E500004000420FFF7C0FF0B4B1A7A5B7AD2B252
:102E6000DBB2002804D00020084900F05BFA10BD56
:102E700012021A43064912B2002C01D12000054962
:102E800000F063FCF3E7C046D0FFFF1F04720000B0
:102E90001B720000765C000010B50449044801F084
:102EA000DFF98022034B52001A6010BD4872000007
:102EB0003872000018901454852070B5400001F05D
:102EC000F9F90A2000F0C2F88520400001F000FA6C
:102ED000642000F0BBF8184E184D3368012B1BD14D
:102EE00000232B803468002C08D12A88144B200042
:102EF00014491A8000F029FC200070BD052001F063
:102F0000F5F93060142000F0A1F82B880E4A013347
:102F10009BB22B809342E5D9052001F0E7F93060A0
:102F2000142000F093F82B88074A01339BB22B80C2
:102F30009342D0D90420E0E7540000205200002042
:102F400050000020845C00006B070000852070B5F5
:102F5000400001F09FF9344C02002100002000F0F5
:102F6000F4FB642000F009FD052001F093F9210035
:102F70000200002000F0E9FB642000F0FEFC00F0FD
:102F800075F8FFF799FF002844D1284B1888FEF701
:102F9000F3F9274A274BFDF783FF0022264BFDF765
:102FA0007FFFFEF719FA2549041CFDF74DFC0028A8
:102FB0001BD000F06FF8062001F07CF9201CFDF713
:102FC0006BFCC5B22800FDF725FF011C201CFDF796
:102FD00039FDFDF761FC2A00C3B21949002000F059
:102FE000B4FB1E2000F0C9FCCBE71649201CFDF7FE
:102FF0002BFC002808D01149201CFDF743FC0028B9
:1030000002D000F047F8D9E700F056F8062001F0AA
:103010005FF9D3E70C49002000F097FB00F04CF873
:10302000062001F055F9DCE7845C00005000002028
:103030007B14AE47E17A843F00B874400000F04151
:1030400023720000000070422972000000238342B6
:1030500000D17047C046C046C046C046C046C046C4
:10306000C046C046C046C0460133F0E78022074B49
:10307000920010B500201A60054902F097FA00226C
:103080000321100002F0DCFA002010BD2CA0145423
:103090006C720000002210B51000054902F02CFBF4
:1030A000002802D1034900F050FB002010BDC046AB
:1030B00030FEFF1F60720000002210B510000249B0
:1030C00002F00AFB002010BD30FEFF1F0369C2683A
:1030D000934201D880681B18013B981A7047F7B5D6
:1030E0008368C46801931F1B436805000E0018190C
:1030F000A418974207D83A0002F004FD019B6868C3
:10310000E41A2200F11902F0FDFCEC60F7BD002387
:10311000F7B506001700C568019100933369B468DC
:103120009D421FD2013B5B1B641BBC4200D93C008B
:103130009C4200D91C00736822005819019902F0C2
:10314000E1FC009B2D191B190093019B3F1B1B19D0
:103150000193B368AB4200D10025F560002FDDD1AB
:103160000098FEBD1B19DDE7022310B50F4C104A75
:10317000236163610F4BA261E361C823A2640E4A1D
:103180002362E26400230422A3626362E362A36514
:103190006365E36522650949E01D02F0C4FC200077
:1031A000074902F0C0FC2023A37110BD5800002085
:1031B00072720000D4000020D00000207B7200005A
:1031C0007F720000F0B5274B85B01B780E0002908F
:1031D0000192002B01D1FFF7C7FF1823029A0025A7
:1031E0005343204AD3185A6D9C6D0392944219D9C7
:1031F0001B6D019D1B1B9D4200D91D001827029BC2
:1032000030005F43174B2A00DF19FB6C7619191940
:1032100002F078FC019B64195B1B01933B6DA34298
:1032200000D10024039B019F1B1B9F4200D91F005C
:10323000002F0CD01823029A30005343094AED198D
:10324000D318D96C3A00091902F05CFCE419002D7E
:1032500005D01823029A03485343C01884652800F8
:1032600005B0F0BD5800002010B50B00EFF310843E
:10327000012181F310881900FFF7A4FF84F310885F
:1032800010BD0000F8B516001822451C55434243F6
:10329000164B0F005D199B18DC6A012C10D0022C14
:1032A0001BD0002C1FD12800FFF710FF864205D845
:1032B000320039002800FFF712FF34002000F8BD6B
:1032C0002800FFF703FF3400864200D904002200E3
:1032D00039002800FFF703FFF0E732002800FFF76E
:1032E00016FF0400EAE70024E8E7C0465800002083
:1032F000F8B50B4B04001B780E001700002B01D112
:10330000FFF732FFEFF31085012181F310883A00B7
:1033100031002000FFF7B6FF85F31088F8BDC046E6
:103320005800002070B5050008000C00FDF7E8F813
:10333000210002002800FFF7DBFF70BD13B56B46CC
:10334000DC1D012221000020FFF78EFF012801D1A2
:10335000207816BD01204042FBE710B5FFF7EEFFD5
:103360000028FBDB10BD0000F7B5164C0193237855
:1033700005000F001600002B01D1FFF7F5FE2369B1
:10338000AB421CD9EFF31082012181F31088002D8C
:103390000CD01823691C59436B43675061184E6069
:1033A0000199E31819620021996259621820454376
:1033B000089B6419E36282F310880020FEBD01209F
:1033C0004042FBE758000020826810B504004068C6
:1033D000531C834205D820688154A360E3680133FD
:1033E000E360A26863689A4209D121682069FFF707
:1033F0007FFFA368984203D001235B42E36010BDC6
:103400000023A360FBE70000F0B5050017000800EB
:10341000012685B00A9C02910093B84219D2009A05
:103420000196964200D2019201230B9A1A40039210
:103430000B9A1A4202D1002C10D10024EB6801260D
:10344000002B4BDB009B012B1FD9013B00937E43DC
:10345000F8E73900FDF770F80136DEE70B9B202610
:103460009B0704D5009B1036002B00D0103E019B1B
:10347000A342E3D231002800FFF7A6FFEB68013C2E
:10348000002BDBDB002CF2D1D7E731000298FDF7EF
:1034900053F88742DBD902983100FDF7D3F8114B7E
:1034A0000291195C2800FFF78FFFEB68002B05DB0A
:1034B00039003000FDF740F8BE4211D2039B002BCB
:1034C0000CD0002C0AD0019BA34207D22021280057
:1034D000FFF77AFFEB68013C002BF2DA05B0F0BD94
:1034E0000600D8E786720000F0B59FB00EAB0993D6
:1034F00040230A9300230E00150007900B930D90B4
:103500000C9331780136002907D10C9B0393002BD3
:1035100000DD09E10C981FB0F0BD252900D0B3E013
:1035200000270822042006E0302B0DD1022300E002
:1035300001231F430E003378711C2D2BF8D0F3D8D4
:10354000232B10D02B2B0CD000240A213378721C93
:1035500018003038092808D84C43303C16001C1994
:10356000F4E70743E6E71743E4E7002103912E2B36
:103570000ED116000A203278711C1300303B092B43
:1035800006D8039B0E004343303BD3180393F2E766
:10359000042331780A0001369A43682A01D1317830
:1035A000F8E7782909D86F290BD8632967D017D88D
:1035B000252969D0582900D195E00C9B002BA0DA71
:1035C000A3E7703908000829F7D8FCF7ABFFA5007E
:1035D000F6FFF6FF9400F6FF8300F6FFF6FF8C007F
:1035E0006429EAD12B681A1D1B682A60DA1798181B
:1035F0000493012350400593092849DC039B059A55
:103600000693934200D20692002C05D0049B002B17
:1036100001DB7B0700D5013C02231F4202D0039B44
:10362000002B05D001231F4202D1002C36D10024EB
:103630000C9B0593002BC0DB049B002B3ADA2D2159
:103640005B42049309A8FFF7BFFE0C9B002BB4DB81
:1036500003233B40022B05D1039B002B02D1002CFE
:103660002CD100240C9B0593002BA6DB0A22039B84
:1036700004990197009409A8FFF7C6FE9DE72B68FF
:1036800019681A1D2A60C9B209A8FFF79DFE94E7C0
:103690000A21FCF7DBFF059B0133ACE7069BA34245
:1036A000C6D2202109A8FFF78FFE0C9B013C002BFE
:1036B000BBDABDE77B07C8D52B21C3E7069BA34236
:1036C000D0D2302109A8FFF77FFE0C9B013C002BD4
:1036D000C5DAC7E70A22296801970B1D2B60039BF7
:1036E00000940968C7E7296801970B1D2B60039BAD
:1036F00000941022F5E72B681A1D2A601C682178B7
:103700000134002900D158E709A8FFF75DFE0C9BA2
:103710000393002BF3DA50E729680B1D2B6000237D
:10372000019308330093E4E70B9A002A03D007982B
:103730000EA9FFF7DDFD0C9B03930B9B0493049AEA
:10374000039B944663440C93E4E60EB403B503ABC9
:1037500002CB01AA0193FFF7C7FE02B008BC03B079
:10376000184710B5002000F0D1FD10BD10B50020A5
:1037700001F084FC10BD0000082310B5164A9178B2
:10378000194202D091780B439370882100222220A5
:10379000124B49015A501249124C087080201249AC
:1037A00040025850196811480140196019591048D1
:1037B0000840C02189040143195180210D4B1A7220
:1037C00019767F391A7059700B490A700C32997941
:1037D0001142FCD110BDC04600D00740007004402B
:1037E00000E007400410000044100000FFFFF3FF5A
:1037F000FFFFFFF00040064000500640124913480A
:1038000010B5814205D00022114B9B089B009A42C3
:103810000FD1104B104A9960002310491048521ADA
:103820009A420AD100210F4B0F4AD21A013A08D20C
:1038300010BD84588C500432E9E7CC5CC454013389
:10384000EEE719700133F1E700000000000000000E
:103850000000000000ED00E0B475000000740000FE
:1038600000FEFF1FB4FFFF1F400200200300417055
:103870000020187058609860704710B543780400B5
:103880000120FF2B08D000F099FA63780133DBB2F6
:10389000637000F087FA002010BD0020704770B5FB
:1038A00004000D0000F08AFAE1682943E16000F0AD
:1038B00079FA002070BD000000220A4B9A641A00B9
:1038C00040329A631A0030329A621A0020329A61AA
:1038D0001A0010329A60044A1360044B9B60DB604C
:1038E0007047C046A00100209C010020F00100208C
:1038F0000022024B1A60186880B270470C007C509E
:1039000070B5437804000D00002B0BD0002500F0AB
:1039100055FA6378013BDBB26370257000F042FA20
:10392000280070BD02200029FBD02378002B17D07F
:10393000FFF7DEFF6368A268834204D8C01A8242A0
:1039400006D30320EDE7C01A80235B02C018F6E718
:1039500000F034FA0023237000F024FA0220E0E79C
:103960004B1CEED000F02AFA0123237000F01AFA63
:10397000FFF7BEFFA5606060E3E770B50500FFF7E5
:10398000B7FF802604007602FFF7B2FF03008442EF
:1039900003D8031B9D42F7D270BD301BC318F9E753
:1039A00010B5012801D100F009FA10BD10B50128A9
:1039B00001D100F0F7F910BD10B5FFF77DFF01232D
:1039C0000020084A08491360084A094C1060086042
:1039D00004212160074C216007490B6007490860FA
:1039E000136010BD38800450000084500000045063
:1039F000000004510400045104000C500000045362
:103A000010B5044C206021710020A2602373637301
:103A100010BDC046000200200422F0B587B005ACFE
:103A20003B4E019002912070617033790092834285
:103A300026D90022337B1500737301230092A370F3
:103A40000393334F3B7BAB421DD8009B002B02D02E
:103A5000029B012B48D10120FFF7A2FF0C20019B04
:103A6000002558433368181800F0C2F8019B012064
:103A700073710226FFF79AFFA6703B7BAB421AD800
:103A8000009807B0F0BDBA68AB009B58002B0FD070
:103A90001A7903990A420BD020001A689968904756
:103AA000002805D0029B7D73002B1BD005230093BB
:103AB0000135EDB2C5E7BA68AB009B58002B0ED0BC
:103AC0001A7932420BD020001A6899689047002872
:103AD00005D0029B7D73002B17D006230093013580
:103AE000EDB2CAE7052300930023A370013DEDB2B8
:103AF000FF2DC5D0064BAA009B68D358002BF5D0EC
:103B000020001A6899689047F0E706230093B7E70A
:103B100000020020014B58797047C0460002002087
:103B200013B50400002021780190022920D0032938
:103B300022D0012925D1227901AB144801F03CF8AB
:103B4000002814D1A3795A1E9341114ADB01137046
:103B500063785A1E93410F4A5B001370A2780E4B94
:103B60001A70E2780D4B1A7062790D4B1A7016BDFF
:103B70000100227901ABE0E701A9044801F05EF8F9
:103B8000DEE701A9014800F0FBFFD9E7004006404D
:103B900018408653004086500040065001400650B1
:103BA00018401650074A43099B009B18F822C0058D
:103BB00012051040184380235B051843002303605F
:103BC0007047C04628800440F821084A43099B00FA
:103BD0009B180905C2050A4013438022520513436E
:103BE0001F2210401E3A82401A607047288004400D
:103BF000072373B5009300230400104D1A00012120
:103C0000280001F003FA2000FFF78AFF637A2800FA
:103C100000930023217A1A0001F0F8F9E379084AA9
:103C20009B041360074BA17A1D68280001F022F85D
:103C30002800E17A01F02DF8002076BD00700440E4
:103C400000700C59E872000010B5054800F058FFEC
:103C5000044B1968C9B20131FCF76EFC10BDC046B7
:103C60000040064044801C5E10B5FFF7EDFF10BD1C
:103C700010B5054800F044FF044B1968C9B2013182
:103C8000FCF75AFC10BDC046004006404480145862
:103C900010B5FFF7EDFF10BD0B4B1B68DBB2022B1D
:103CA0000CD0032B0DD00020834206D1074A1068A8
:103CB00080221202904200D018007047044B18680E
:103CC000FBE7FA208000F8E700700C593002002072
:103CD0003402002010B5FFF7DFFF10BD054B10B513
:103CE000186800F0CEFF0023984201D0024B1B68F9
:103CF000180010BDE8720000300200200B4B10B518
:103D00001868C0B202280AD003280BD00138431E1D
:103D10009841074B40421840064BC01810BDFFF7B2
:103D2000DDFFFBE7044800F0D5FEF7E704800C5CFC
:103D3000009423FD006CDC0200400640010010B539
:103D4000044801F087F9044B002801D1186810BD20
:103D50005868FCE7007004401002002010B5024BC8
:103D6000185CFFF731FF10BD9672000010B5762089
:103D7000FFF72AFF10BD10B57620FFF713FF10BD27
:103D800010B56620FFF720FF10BD10B56620FFF7C5
:103D900009FF10BD10B5024B185CFFF715FF10BDF1
:103DA00098720000044A1368002B04D0013B136092
:103DB000002B00D162B670471802002072B6024A8A
:103DC00013680133136070471802002010B5064CC9
:103DD000064801F0D7FB042801D1002010BD013CAA
:103DE000002CF5D10320F9E7EA03000000E00740CA
:103DF00010B50B4B0B490A78002A07D0084C0A482B
:103E000001F0C0FB012806D1002003E0013B002B9C
:103E1000F1D1032010BD013C002CF0D1F9E7C046E0
:103E2000EA03000002D0075100E00740F7B50700A1
:103E30000E00150001200193002F15D0002913D08A
:103E4000FFF7AEFD094C10220021200001F063FEB7
:103E500027602671002D03D0019BA5602373637337
:103E60000120FFF7A3FD0020FEBDC0461C0200207C
:103E7000F0B5B14C8DB002900391237B01206373A8
:103E8000FFF78EFD2379029A934206D80120FFF7AF
:103E90008DFD022738000DB0F0BD029A2368920014
:103EA000D35809AC1D780193039B2A002372029B0F
:103EB0002370019B636002239A430492012A01D07C
:103EC000052D0AD101219D4801F0B0FA002807D143
:103ED0000120FFF76BFD0127DCE70321072DF2D856
:103EE0000123002763723C000593934E337BA3426A
:103EF0002AD80120FFF75AFD914800F025FE049BC7
:103F0000012B4AD10138022835D9039B012B00D05F
:103F10000DE106270120FFF743FD0023012609AD2F
:103F20006B72013CE4B2FF2C00D1AFE0824BA200E7
:103F30009B68D358002BF4D01A793242F1D0280074
:103F40001A6899689047ECE7B268A3009B58002B69
:103F50000ED01A7905990A420AD01A68996809A8F8
:103F60009047002804D0039B04277473012BC0D111
:103F70000134E4B2B9E7FFF78BFE724B9842C4D824
:103F8000FFF762FE704EB042BFD8FFF771FEB0423D
:103F9000BBD8FFF769FEB042B7D8039B012B00D016
:103FA000C1E00A2D00D9BCE02800FCF7B1FA060AEE
:103FB0000D1E879A7B822F737800002207AB1A7040
:103FC0002DE0032207ABFAE75C4801F0DBFA012899
:103FD00008D00021594801F039FAFFF709FF071E00
:103FE00000D057E7012207ABE9E7544801F0CAFACD
:103FF000042808D00221514801F028FAFFF7E6FE14
:10400000071E00D046E7042207ABD8E7072207AB1C
:104010001A80019AD2789A70019A1279DA702B007C
:10402000083B022B06D8019B06AA5B799372019B81
:104030009B79D372019B5B78002B0AD0012D08D9A4
:10404000019B02229978414B00294DD019690A43FE
:104050001A613A4807A901F01DFA002800D0032789
:10406000002D45D1FFF7C4FE071E00D012E7002740
:104070000120FFF795FC029B2F4D0024AB73022318
:1040800009AE737201932B7BA34236D80120FFF750
:104090008DFCFFE6082207ABFF321A80BFE72C4AEF
:1040A00007ABFAE7022207AB1A700222FF329A80AE
:1040B000B5E7022207AB1A70264AF8E7022207ABDF
:1040C0001A70013A1D489A8001F05CFA0128A6D0C6
:1040D00000211A4801F0BAF9FFF78AFE071E9ED0A8
:1040E000D8E6052207AB6AE7196991431961B0E781
:1040F000012DBDD1FFF76AFEB6E7AA68A3009B5861
:10410000002B0BD01A7901990A4207D030001A68A7
:1041100099689047002801D005276C730134E4B2F8
:10412000B1E70327B6E6002F00D13AE7F2E6002F09
:1041300000D0EFE6EDE6C0461C02002000E007409C
:104140000040064040420F0080841E0000ED00E069
:10415000070300000102000010B5064801F012FA42
:1041600003000020012B03D00B30042B00D10A38B0
:1041700010BDC04600E00740F7B5FF2403681D4AA4
:104180001E0A26401C40B3009F581B4A05009B583E
:1041900030000193FFF7E2FD00222100380001F01A
:1041A00007FB019BA400E41884232A795B052343C1
:1041B00052001A6080236A795B0523431A609023BA
:1041C000AA795B05234312011A600C4B1C43EB795F
:1041D0001B042360EB79002B0AD0094B9B57002B63
:1041E00006D01F2213401E3A9A401300054A13605E
:1041F000F7BDC046EC720000F47200000000181811
:10420000FC72000000E100E0F8B5FF24050003683F
:10421000114A180A20401C4083009F580F4A9E589C
:10422000FFF79CFD38002100012201F0C1FA6A6805
:104230002100380001F0CBFA88232A7AA400A419BF
:104240005B05234392001A6098235B051C436B7A3D
:104250009B012360F8BDC046EC720000F4720000C0
:1042600070B50C00002807D1002C0FD170BD0500DF
:104270000835FFF781FF280003680133F7D1F3E722
:10428000250020000C35FFF7BFFF2C002368013309
:10429000F6D1EBE7FF22030A054913409B005B5868
:1042A00010405B69C3401800012318407047C046A6
:1042B000EC720000FF22030A044913409B00595886
:1042C0000123104083404B607047C046EC720000F1
:1042D000FF22030A044913409B0059580123104050
:1042E00083408B607047C046EC720000FF22030AD7
:1042F000054913409B005B5810401B69C3401800E0
:10430000012318407047C046EC720000084B820041
:10431000D258942310B502325B0513431B78002B4F
:1043200002D000F03FFA10BD00F092FAFBE7C04661
:104330009C720000020080230C325B0513431A7844
:10434000002AFCD00171704770B50D00084B800049
:10435000C458200029001830FFF7D2FA0328F8D0FB
:10436000002801D004232374207CC0B270BDC04655
:104370002C02002010B5104B8000C458E37C002BA9
:1043800005D0237C052B02D0237C042B0BD10B4BB7
:1043900018589823821C5B05134300221A7001F001
:1043A00085FA01236374A37C002B03D0200018300E
:1043B000FFF763FA10BDC0462C0200209C7200007B
:1043C000F0B51700002289B005930EAB1B780500ED
:1043D0000393830032481E5832481C5807AB1A809A
:1043E000A37C880A04930223FF3363828B0A019320
:1043F000CBB21E2801D11A000B0A5B00D8B2019B78
:1044000000211E2B05D08F4203D1012303995B1A93
:1044100059B20143CBB202930299019807AB1970CC
:1044200001211E2801D15A704918A3603000E160B3
:104430000299FFF77FFF28000F99FFF785FF237C84
:10444000002B0CD1002F0AD0059BA760E360300041
:104450003978FFF76FFF28000F99FFF775FF237C6E
:10446000039A1A4314D1019B1E2B01D0002F0FD0A9
:10447000002301273000A360E76001F005FA0299EC
:1044800030003943FFF756FF28000F99FFF75CFF14
:104490000023207CE374049BC0B2A37409B0F0BD78
:1044A0009C7200002C020020F7B583000193184B8A
:1044B0008200D75805000C000126002F26D1154B8D
:1044C0003900D35820002422019301F024FB20005E
:1044D00039001830FFF7CAF92800FFF751FC01989E
:1044E00001F07DF90A4BAA00D4501F220A4B5B5DF4
:1044F000134032009A40094B1A609C22019B5205DE
:1045000002331343802266743E001A703000FEBDF1
:104510002C0200209C720000A072000000E100E06C
:10452000F7B50E4E8500AB59002701930C4B0400E4
:10453000EA589C2302325B0513431F70FFF725FCEA
:10454000084B01981A5D1F231A401E3B9340064AF0
:104550001830D367FFF7A1F9AF51F7BD2C02002047
:104560009C720000A072000004E100E00A4B800091
:1045700070B5C5584B686A690C0093420BD0074B65
:10458000C658FFF775FB002301006268300001F098
:1045900035F963686B6170BD2C0200209C720000CD
:1045A000F0B587B004920593334A0FAB1E788300B1
:1045B0009C580391627C0700002A03D103202074D9
:1045C00007B0F0BD002E01D11E220E922B4A3800FA
:1045D000D55800230399E360A360237423606374B8
:1045E000A674FFF7C3FF90231021AA1C5B05134399
:1045F00019708423E91C5B050B4302211970982371
:104600005B05134302934023029A2800137001F0C4
:104610003BF9039B380019880E9B049A01930123F0
:104620000093059BFFF7CCFE0D9B002B17D0237C3E
:10463000002B11D10C9B2800A3600D9BE3600C9B09
:104640001978FFF777FE002E03D038000E99FFF798
:104650007BFE207CC0B2B3E7237C042BF9D100237E
:104660000126029A1370EB785B09334202D02800CE
:1046700001F01CF96674ECE72C0200209C7200002B
:10468000F0B589B0079311AB1B780692364A0293B6
:1046900083009C580591627C0600002A03D1032008
:1046A000207409B0F0BD029A002A01D11E32109286
:1046B00000272E4A0599D5580E9B300023600F9B8A
:1046C000A7606360029BE760A37427746774FFF7B9
:1046D0004DFF9023AA1C5B051A43102313708423FB
:1046E00004925B05EA1C134302221A709823AA184D
:1046F0005B051A43402328001370039201F0C4F8AD
:10470000059B069A1988109B300001930097079B20
:10471000FFF756FE237CDAB2BB4215D1049BA91CDD
:104720001A708C235B050B430F99012900D10822D5
:104730001A702B79029B002B03D030001099FFF7E1
:1047400003FE207CC0B2ACE7237C042BF9D1012608
:10475000039B1F70EB785B09334202D0280001F005
:10476000A5F86674EDE7C0462C0200209C7200009C
:104770001FB501240394089C0294079C0194069C95
:104780000094FFF70DFF04B010BD1FB50124039482
:10479000089C0294079C0194069C0094FFF770FF0C
:1047A00004B010BD244B70B58400E5588423EA1C86
:1047B0005B05134302221A709023A9185B050B4373
:1047C0001B78EA78DBB292061DD5942252050A4383
:1047D0001278002A17D0194AA458012B14D1EA786C
:1047E0001A4204D004332374FFF7C4FD0BE0E368DE
:1047F000013BE360002BF7D0A36828005A1CA2609D
:104800005978FFF797FD70BD6268013A6260002A2F
:1048100006D08C235B05012A0AD000220B4309E055
:10482000FFF7A8FD23685A1C22602A791A70EAE76C
:1048300008220B431A70F5E79C7200002C0200203E
:10484000C31C8420400518430223037070470000F6
:104850000122F0B5904B8100CD5889B0EB1C01933B
:10486000EB7890261B091A4005920122EB78760519
:104870009B091A4002923200AB1D1A4394461278EB
:104880000090D2B20792942252051A431278AF1CBC
:10489000D0B203909820400503431878C0B2069028
:1048A0007E480C583100394301910978C9B204910E
:1048B000002A35D0079A002A0ED01023624628001D
:1048C0001370FFF7BDFF236B002B52D06A46012106
:1048D0001078626B98474CE0069A002A20D040225C
:1048E00028001A70FFF7ACFF23002C331B78002B35
:1048F00003D19822520517433B70236B002B04D041
:104900006A4680211078626B9847E37D002B04D0C3
:10491000200080211830FEF7C2FF0A23237028E010
:104920002800FFF78DFF059B002B24D0EB1C1E43B6
:1049300010233370029B002B10D0EB785B07DA0F4B
:10494000002B48DB019B1A70236B002B04D06A46B6
:1049500004211078626B98472B790AE008232370B2
:104960002C342378002B04D198235B051F43029B32
:104970003B7009B0F0BD029B002BDED1049B012BE4
:1049800054D1EB78049A134230D0019B029A1A70EA
:104990002B7923002C331B78002B07D1039B002B92
:1049A00004D198235B051F43039B3B70236B002BB3
:1049B00004D06A4608211078626B9847A37D002BCB
:1049C00004D0200008211830FEF769FF002363603F
:1049D000E3602375CDE71023019A1370236B002B3E
:1049E00004D06A4602211078626B98476368002BF6
:1049F00050D028008022E3680C3052051978024319
:104A000010780028FCD029710133E3606368013B12
:104A100063606368002BACD1E3602375236B002BCC
:104A2000A7D06A4610211078626B53E72B79A268F1
:104A3000DBB2002A2CD02269137023690133236171
:104A4000A368013BA360A368002B00D091E7039B00
:104A5000002B11D123002C331B78002B04D1982379
:104A60005B051F43039B3B70E37D002B04D02000BC
:104A700020211830FEF713FF002363752361236B99
:104A8000002B00D175E76A4620211078626B21E780
:104A9000072343E7062341E79C7200002C02002015
:104AA00084225205024312780300D0B2002A0CD0AF
:104AB00080200133400503431878013843425841B0
:104AC000024B40421840024BC0187047808D5B007B
:104AD00080841E00020070B5074B083213431C7817
:104AE000064B103213431D78FFF7DAFFEDB2E4B244
:104AF0006419E04070BDC046000090100000101026
:104B000010B50D4B821D13431A780400D3B2002A4E
:104B10000FD0012B07D1FFF7C3FF084B08341C430C
:104B20002378D84010BD0020022BFBD1044B18681D
:104B3000F8E70448F6E7C0460000081100009010AE
:104B400030020020006CDC020C4A811D0A431278FE
:104B50000300D0B2012A04D002280BD000280BD1C8
:104B6000704780220133520513431B78002BF7D185
:104B70000220F5E70320F3E70520F1E70000081124
:104B800002009C2318325B05134380221A70002216
:104B9000064B03431A70064B063018430378DAB20B
:104BA000002BFBD1034B10000B6070470000081373
:104BB00000000811006CDC02F8B504000D001600BE
:104BC0001F00FFF7C1FF012823D1002D25D080232E
:104BD000621C5B0513431D70842302225B05234383
:104BE0001A702200104B083213437200D2B21A70AE
:104BF00040220E4B0E48234306341A700443237898
:104C0000012BFCD1002D0DD10A4B334100203B601C
:104C1000F8BD0228DBD1012DD9D139002000FFF7E2
:104C2000AFFFD4E7044BF0E700009010000008133A
:104C30000000081180841E0000127A0010B50A4C92
:104C4000030022680120002A0CD0084A7F301A4352
:104C500010700748063303431A78022AFCD100205B
:104C600023680B6010BDC04630020020000008130E
:104C7000000008119C23C9015B050343C9B21970E8
:104C800070479C235B0503431878431E9841C0B2CC
:104C90007047942349015B050343C9B219707047FB
:104CA00070B506680C0030002049FBF745FC1F4931
:104CB00005003000FBF7C6FC0E00E12130000901C1
:104CC000FBF73AFCE121E08009013000FBF7BAFC78
:104CD0000E003C213000FBF72FFC3C2120813000EE
:104CE000FBF7B0FC6E22A1720321114BFF3223802F
:104CF000238895420AD80F499B0700D10E4901230A
:104D0000CA5CAA420CD36380A58070BD01339BB2FC
:104D100023800B40AD1A5A425A416E32FF32E7E708
:104D20000133AD1A0D2BEBD1EEE7C04680510100E7
:104D3000B2070000C8720000A17200000188114A89
:104D400003008A18002030B5812A17D85A88541ECB
:104D50000B2C13D89C88651E1E2D0FD8DD88172DAF
:104D60000CD81D893B2D09D89B7A3B2B06D88B0785
:104D700005D0054B9B5CA3424041C0B230BD034B04
:104D8000F8E7C0464EF8FFFFC8720000A1720000AD
:104D900070B5134D838802885B196E25FF35554326
:104DA00044885B1995085B190E4D6600755B5B19AD
:104DB000920710D00B600A680B4BC4885343827A69
:104DC00000899B18E122120162439B183C22424356
:104DD0009B180B6070BD022CECD8013BEAE7C04683
:104DE0004A05F5FFAE720000805101008023084A99
:104DF0001B0212689A4209D1A02310305B051843A8
:104E00000368002B02D10133FF3303607047C046B3
:104E1000300200200100802210B500230124520539
:104E2000103111430C600B60902143604905046010
:104E30001C3001430B608821490501430B6084212C
:104E40004905014310430B60036010BD020090232D
:104E500014325B05134300221A6042601032016075
:104E60001A60704703680B6070470000104B8200A7
:104E700070B5D558802204000E4B92051A602800A8
:104E8000FFF7C8FF2800FFF7B1FF0B4B1F261A5D85
:104E90000123180009493240095DC0253140904086
:104EA0008B40074A6D00505153511060136070BD24
:104EB000D87200003C80845EDC720000DD7200006D
:104EC00000E100E0F7B50027114B8000C55808004D
:104ED0000E000197FFF732FF0400B84216D001A977
:104EE0003000FFF755FF3800FEF7F4FE0100802088
:104EF0000002814206D0FBF71FFB01000198FBF77F
:104F00001BFB019028000199FFF7A0FF2000FEBDC8
:104F1000D8720000F7B50025124B8000C4580E006F
:104F2000200001A90195FFF79DFF2800FEF7D2FEA2
:104F300005008020000285420ED00B4B290004346E
:104F40001C43FBF7F9FA2768019C29004443B8B2D7
:104F5000FBF7F2FA24180194310001A8FFF7A0FE34
:104F6000F7BDC046D872000000007810F0B50027E9
:104F7000184B800085B0C55808000E0001920397B9
:104F8000FFF7DCFE0400B84203D10024200005B086
:104F9000F0BD300003A9FFF7FBFE38002E68FEF7D6
:104FA00099FE010080200002814206D0FBF7C4FA7E
:104FB00001000398FBF7C0FA0390039BB342E4D3CC
:104FC000AB6088231C355B051D43019B9A002A605A
:104FD000DCE7C046D8720000044B8000C25888232A
:104FE0001C325B051343890019607047D8720000BA
:104FF000054B8000C258882314325B0513431868A0
:10500000431E9841C0B27047D87200006B46E02240
:105010001B78D2021B041340024A09070B43801875
:105020000360704744100000002902D0012908D015
:105030007047074B1206C018E0235B051843026057
:10504000F6E7034B5206C018E4235B051843F6E766
:105050000C100000002903D0012909D0002070475E
:10506000054BC018E0235B0518430068C0B2F6E7A3
:10507000014BC018E423F6E70C100000084B820037
:10508000D258902310B503325B0513431B78002BD5
:1050900002D000F013F910BD00F078F9FBE7C0462C
:1050A000E07200009C210C4B0C4A8000C3588258CF
:1050B000002003324905114310B51871087094217E
:1050C00049050A4310701A7F824203D0203318002A
:1050D000FEF7D3FB10BDC04638020020E07200008E
:1050E000F7B50C0005001B4B302200218700200083
:1050F000FE5800F010FD2800FEF738FEFEF7B8FD60
:105100002060300000F0F3FB200000212030FEF78B
:10511000ADFBF31C01939023F21C5B05134310229B
:1051200030001A70032100F020FC3000002100F054
:1051300041FC094BFC50094B5A5D1F231A401E3B92
:105140009340074A13609823019A5B05134340225A
:105150001A70F7BDE072000038020020E47200000F
:1051600000E100E0F8B50D4E85000D4BAF5904008D
:10517000E85800F0BCFB38002030FEF78EFB094BEE
:1051800020001A5D1F231A401E3B9340064AD36736
:10519000FEF7F1FD0023AB51F8BDC04638020020F8
:1051A000E0720000E472000004E100E00A4B8000BD
:1051B00070B5C658094B0C00C358150030001A686A
:1051C000096800F09BFB2860A3793000627921799F
:1051D00000F0DDFB70BDC046E07200003802002028
:1051E000F7B51E4A83009C58050022790420002A46
:1051F00016D11B4A9E58002903D0280001AAFFF7A8
:10520000D5FF982300214020F21C5B051343197041
:10521000187027698F4204D12800FFF743FF002050
:10522000FEBD0123237194235B05A16133431B78E9
:105230000720002BF4D0A368191E02D0197801337F
:10524000A360B1712369013B2361A3690133A361A9
:105250009C235B051A4380231370E0E7380200208B
:10526000E0720000F8B5134F134C85002C59ED592E
:105270000127069E2777A2602661E3606661FFF73B
:10528000AFFF002814D1200007992030FEF738FB2B
:105290000328F8D000280BD09C23002203355B059F
:1052A0002B4322711A70942303205B051D432A703F
:1052B000F8BDC046E07200003802002010B51E4B59
:1052C0008200D3581979002934D01C4951585A69A1
:1052D000002A11D09C2252050A431278002A0BD0D2
:1052E0008A79DC68D2B2002C03D02270DA680132ED
:1052F000DA605A69013A5A611A69002A12D0942276
:1053000052050A431278002A0CD09A68141E02D063
:10531000147801329A608C711A69013A1A619A699B
:1053200001329A611A69002A04D15B69002B01D10C
:10533000FFF7B8FE10BDC04638020020E072000042
:10534000104A8000815800220F4B10B5C35803311A
:10535000581CC2779C2040050843DA621A701A83F1
:105360005A629A621A6302709420400501430A70DF
:105370001A0038321278002A03D00121181DFEF7D6
:105380008EFA10BDE07200003802002070B5254B87
:105390008200D358591CC97F002942D02249525853
:1053A000D96A002917DB942149051143097800299E
:1053B00011D0D969CCB2596A002905D0DD6A002D17
:1053C00002DD0C78013159629471D96A0139D962D0
:1053D000596B01315963D96A002905DA9421D41C2B
:1053E0004905214300240C70196B002911DD9C2113
:1053F00049051143097800290BD09279996AD2B2F4
:10540000002903D00A709A6A01329A621A6B013A33
:105410001A63DA6A002A04DC1B6B002B01DCFFF73D
:105420008FFF70BD38020020E0720000012903D018
:10543000032909D00020704794235B0518430078A6
:10544000431E9841C0B2F6E78423F6E7431C0348A5
:1054500049011843C9B201707047C0460000881264
:10546000831C9420490140051843C9B2017070475C
:10547000831C034889011843C9B201707047C046B4
:1054800000000813831C8C20C90040051843C9B2D2
:1054900001707047F7B50400364EE31C1E433378A5
:1054A00008780D00DBB2072860D8FBF731F8041943
:1054B0002B0E192B2B45304B01341C43002323703A
:1054C0003378012BFCD10020FEBD012BFCD12A4BEF
:1054D00001341C43402323703378042BFCD1F2E7C2
:1054E0000021012801D004200231337898423FD1B5
:1054F0002000FFF7ABFF0421204A13698B4313619F
:1055000030BFE0E70227B84207D100270B79BB4242
:1055100003D020004979FFF7ABFF194B01341C433E
:1055200027703378154ADBB20193019B0133019355
:10553000042311690B43E2E70421114B621C1A4357
:1055400011706A78A11C0B431A70002A06D1AB783F
:10555000002B03D02000E978FFF782FFAB79002B06
:10556000DFD02000E979FFF78DFFDAE70120ABE714
:105570000320A9E7000030100000881200ED00E0D1
:1055800000001010C31C024818430078C0B27047D6
:105590000000301010B50024034B021D08301A43E0
:1055A00018431460016010BD0000781070B505004C
:1055B0001E4B8200D6580C00FEF7ECFB2900300091
:1055C00000F042FA3300C022A178843352051A4316
:1055D00009041160C422E17852051A43490411609C
:1055E000C822217952051A43890411606179104A51
:1055F00009061A431160A422617852051A43490230
:1056000011602278C021501E824152421140094A45
:1056100013431960084BC0215A5D1F231A401E3BDB
:105620009340064A49005350136070BDC873000090
:105630000000181C00000813D073000000E100E017
:105640000F4B10B58400E4580E4B23431A600E4CE8
:10565000002901D1217010BD4B1E022B05D80B4B28
:105660000906196001232370F5E70439CAB2032340
:10567000012AF8D801000648FFF7D6FC0223F2E71A
:10568000C8730000000010103C02002004800C5C75
:105690000070044010B501240C4B8200D2580C4B12
:1056A00013431B68DBB29C400A4B1B78012B03D0D1
:1056B000022B08D0002010BD0020FEF71FFB2100A8
:1056C000FAF73AFFF7E7FEF739FBF8E7C87300008F
:1056D000000010103C02002011000022044B10B505
:1056E0008000C058034B03431A6000F099F910BDC5
:1056F000C873000000008811F7B5294B14001A7810
:1057000000230D009A421AD0264B8200D658FFF78C
:10571000C1FF21000700300000F082F922002900BB
:10572000300000F056F92B78002B0AD0012B24D042
:105730001D4B1E431A4B1B78DB00336001231800FE
:10574000FEBD69683800FAF7F7FE83B25F1EA868ED
:10575000BFB2642178430193FAF7EEFE85B2AF42FF
:1057600000D8019D39003000E400FFF713FF10342A
:105770000E4AA41914432560DAE76B683800590013
:10578000FAF7DAFE87B23800AB6864215843FAF7BB
:10579000D3FE85B2AF42E5D87D1CADB2E2E7C0468C
:1057A0003C020020C873000000008811000078103F
:1057B000012314308B40012A04D1802212051043AA
:1057C000036070478022D204DB431043F8E70123D3
:1057D0008B40002A01D0436070478360FCE70023C0
:1057E000C222037043708370C37043718371C371AD
:1057F000037242728372C37270470000F0B50024D6
:1058000087B00293FA230126270025009B0053430B
:1058100003900491009301947642AB000593194BD9
:10582000AA009B1859880498A140FAF785FE009BAE
:10583000009AC31A824200D9131AB3421FD2114AE6
:10584000A900525C27000192002B02D00135322DB5
:1058500013D10134032C01D0002B0DD1029A002A60
:1058600000D013603F220199BB0111400B43039A02
:10587000DBB2537007B0F0BD00251E00CDE733004A
:10588000E4E7C046FE720000942302305B05034348
:105890001B78002B05D088235B0518430423037075
:1058A000704780231B0518433023F8E7942210B576
:1058B0005205841C224311780300CAB20220012938
:1058C0000DD18021C90421438024CD300870E4002B
:1058D00003331978490908001040114200D110BD66
:1058E000013C002C01D0C046F3E70920F7E7042370
:1058F000C37000238370437003717047F0B5130BBE
:1059000089B00126039308230124764202939B1950
:10591000079004910592019302270025631E0693C8
:10592000210005987943FAF707FE049B834207D3C9
:105930001B1AB34204D21E00069B039002950193EA
:1059400001357F00092D01D0002EE9D1082C02D0AD
:105950000134002EE0D1019B029A1B0103981343EE
:10596000079ADBB2537009B0F0BD842310B502244E
:10597000C21C5B0513434A0022401A709023001991
:105980005B0518431023C9001940017010BD10B504
:105990008C2403306405C9000443C9B221708821F6
:1059A000920049050143D2B20A7080225205104389
:1059B000037010BD8023012202305B0503430A40BF
:1059C0001A708C235B051843082389001940017065
:1059D00070474B7830B50425002B00D16D1920237A
:1059E00004002B4340250C34D200A21814682C402C
:1059F00023430324136013681B092342FBD00A7856
:105A0000002A02D0012A05D030BD94235B0518433B
:105A10000260F9E794235B05184320230360F3E752
:105A2000C90009180A00074B10321343002210B5B1
:105A300040241A60CB682340CB6094235B05184355
:105A4000026010BD0000781010B50224012900D9B1
:105A5000FD34002302000C4908C20A43136002000F
:105A600008321143094A0A60020019000C3201335E
:105A70001160516008329C42F9DC0423FF33036556
:105A80008430016010BDC04600007810FFFF0000A8
:105A9000084B10B50400002B02D0002100E000BF2D
:105AA000054B1868836A002B00D09847200000F04F
:105AB00043F8C04600000000D473000070B5002613
:105AC0000C4D0D4C641BA410A64209D1002601F018
:105AD00083FC0A4D0A4C641BA410A64205D170BD7C
:105AE000B300EB5898470136EEE7B300EB58984700
:105AF0000136F2E7F8730000F8730000F873000055
:105B0000FC730000002310B59A4200D110BDCC5C9C
:105B1000C4540133F8E703008218934200D1704760
:105B200019700133F9E703000A7801311A70013363
:105B3000002AF9D170470000FEE7C046341000008B
:105B4000620F0000620F00005E0F0000680F00008F
:105B5000680F0000541200005E0F0000680F000084
:105B600054120000680F00005E0F0000F2110000E8
:105B7000F2110000F2110000BE1200001B5B306D3C
:105B80001B5B343B34336D1B5B313B33376D0D5343
:105B9000616E69747920636865636B206661696C06
:105BA0006564211B5B306D0A001B5B306D1B5B3431
:105BB0003B34316D1B5B313B33376D0D496E766184
:105BC0006C696420737570706C7920766F6C746189
:105BD0006765205B25645D206D56211B5B306D0A77
:105BE000004D6561737572656D656E74206E756DBF
:105BF0006265722C205254432D3E5453522C205235
:105C000054432D3E5450522C00204D4D41383435D4
:105C10003120782C204D4D413834353120792C20DD
:105C20004D4D4138343531207A2C0020494E4132D7
:105C300031392043757272656E742C0020484353CD
:105C40005230342054696D652C00205254432D3E4F
:105C50005453522C205254432D3E5450522C202346
:105C600020436F6E666967204572726F72730025FC
:105C7000752C2025642C2025642C002025642C20E4
:105C800025642C2025640A005374617274696E6760
:105C90002048435352303420756C747261736F6EB8
:105CA00069632070726F78696D6974792073656EAD
:105CB000736F72000A2050726F6772616D20737487
:105CC0006F70706564000D09307825303278202DB2
:105CD0002D3E205B307825303278203078253032E8
:105CE00078203078253032785D0A000D093078252B
:105CF000303278202D2D3E203078253032780A0041
:105D00000D09307825303278202D2D3E202D2D2D77
:105D10002D0A000D0A0925642F256420737563631D
:105D200065737320726174652E0A000D0925642F56
:105D3000256420737563636573736573206D617487
:105D400063686564207265662E2076616C756520D7
:105D50006F66203078253032782E0A000D092564D0
:105D60002062616420636F6D6D616E64732E0A0A38
:105D7000000D0A4D4D4138343531513A0A0D000DB0
:105D80000A0A424D4536383020526561642041622E
:105D90006F727465642E204465766963652044697A
:105DA0007361626C6564203A28000D0A09424D58FF
:105DB000303535616363656C2052656164204162F2
:105DC0006F727465642E204465766963652044694A
:105DD0007361626C6564203A2820000D0A09424D07
:105DE000583035356779726F2052656164204162A1
:105DF0006F727465642E204465766963652044691A
:105E00007361626C6564203A2820000D0A09204203
:105E10004D583035356D61672052656164204162AF
